:100000000C9434060C947B060C947B060C9498316B
:100010000C947B060C947B060C947B060C947B065C
:100020000C947B060C947B060C94C12E0C94972F99
:100030000C94E71A0C947B060C947B060C947B06BC
:100040000C947B060C947B060C947B060C947B062C
:100050000C947B060C949D2E0C947B060C947B06D2
:100060000C947B060C947B060C947B060C947B060C
:100070000C947B060C947B060C947B060C947B06FC
:100080000C947B060C947B060C947B060C947B06EC
:100090000C947B060C947B060C947B060C947B06DC
:1000A0000C947B060C947B060C947B06050109805E
:1000B000A101850319012AB700150126B700950192
:1000C00075108100C0050C0901A101850419012AE0
:1000D000A002150126A002950175108100C00660DE
:1000E000FF0961A1010962150026FF00952075082E
:1000F00081020963150026FF00952075089102C052
:1001000005010906A101050719E029E715002501E8
:10011000950875018102950175088101050719008F
:1001200029FF150026FF00950675088100050819AE
:10013000012905950575019102950175039101C08D
:1001400000AF09025B00030100A0FA0904000001EE
:10015000030101000921110100012240000705816E
:100160000308000A0904010002030000000921112C
:100170000100012222000705820320000107050378
:1001800003200001090402000103000000092111FD
:100190000100012232000705840320000A12010039
:1001A0000200000008C58E58010100010200011084
:1001B000034C006F007400750073003500380000B8
:1001C000001C034C006F00720064004F0066005377
:1001D00000610072006300610073006D00000004A4
:1001E00003090407087F0807003E5B4F5B3E003EA3
:1001F0006B4F6B3E001C3E7C3E1C00183C7E3C1846
:10020000001C577D571C001C5E7F5E1C0000183CC4
:10021000180000FFE7C3E7FF00001824180000FFE4
:10022000E7DBE7FF0030483A060E00262979292649
:1002300000407F05050700407F05253F005A3CE749
:100240003C5A007F3E1C1C0800081C1C3E7F00140A
:10025000227F2214005F5F005F5F0006097F017F3D
:1002600000006689956A0060606060600094A2FF8B
:10027000A2940008047E04080010207E20100008CC
:10028000082A1C0800081C2A0808001E101010105C
:10029000000C1E0C1E0C0030383E383000060E3E9E
:1002A0000E060000000000000000005F00000000DB
:1002B0000700070000147F147F1400242A7F2A12ED
:1002C00000231308646200364956205000000807D6
:1002D000030000001C224100000041221C00002AF3
:1002E0001C7F1C2A0008083E0808000080703000AF
:1002F00000080808080800000060600000201008DE
:100300000402003E5149453E0000427F4000007219
:1003100049494946002141494D33001814127F10C4
:10032000002745454539003C4A49493100412111E2
:10033000090700364949493600464949291E000047
:1003400000140000000040340000000008142241A6
:10035000001414141414000041221408000201595E
:100360000906003E415D594E007C1211127C007F4F
:1003700049494936003E41414122007F4141413EC9
:10038000007F49494941007F09090901003E414177
:100390005173007F0808087F0000417F4100002062
:1003A00040413F01007F08142241007F404040400F
:1003B000007F021C027F007F0408107F003E414145
:1003C000413E007F09090906003E4151215E007F40
:1003D000091929460026494949320003017F0103D2
:1003E000003F4040403F001F2040201F003F40385A
:1003F000403F0063140814630003047804030061A1
:1004000059494D4300007F4141410002040810203A
:1004100000004141417F00040201020400404040CD
:100420004040000003070800002054547840007F3B
:100430002844443800384444442800384444287F41
:100440000038545454180000087E09020018A4A46F
:100450009C78007F080404780000447D4000002060
:1004600040403D00007F102844000000417F4000D4
:10047000007C04780478007C080404780038444444
:10048000443800FC182424180018242418FC007C8C
:10049000080404080048545454240004043F44242D
:1004A000003C4040207C001C2040201C003C403090
:1004B000403C004428102844004C9090907C00441C
:1004C00064544C44000008364100000000770000EE
:1004D000000041360800000201020402003C26230D
:1004E000263C00000000000000404040F0F8F8FF0B
:1004F00038FFF8F83FF8F8FF38FFF8F8F0404040D0
:1005000000000000000080C0C0C0800000C0C080AB
:1005100000000080C0C000C0C0000080C0C000005B
:10052000000000C0C0C0C0C000C0C000000000008B
:1005300000000000000000000000000000000000BB
:1005400000000000000000000000000000000000AB
:10055000000000000000000000000000000000009B
:100560000000C0F0F8FC3E1E06010000007F414183
:10057000417F007F4141417F000080C0E07E5B4FB2
:100580005BFEC00000C000DCD7DEDEDED7DC00C0D2
:10059000000000000000000000000000000000005B
:1005A000000000000000000000494949FFFFFFFF74
:1005B000E0DFBFBF00BFBFDFE0FFFFFFFF494949EA
:1005C00000000000001F3F6060E0BF1F007F7F074A
:1005D0001E381E077F7F007F7F0E1F3B716000006B
:1005E0000000007F7F0C0C0C007E7E007F7E0303EA
:1005F000007F7E03037E7E03037F7E000F3E703C00
:10060000063C703E0F00327B49493F7E007F7E03EF
:1006100003001E3F69696F26000000000000000013
:100620000000030F1F3F3C7870600000007F4141D5
:10063000417F007F4141417F00307B7F7830202027
:1006400030787F3B0003000F7F0F0F0F7F0F0003F9
:10065000000000000000000000000000000000009A
:10066000000000000000000000010101070F0F7FE3
:100670000F7F0F0F7E0F0F7F0F7F0F0F07010101FD
:100680000000000000000000000001010000000068
:10069000000000000000000000000000000000005A
:1006A000000000000000000000000000000000004A
:1006B000000000000000000000000000000000003A
:1006C000000000000000000000000000000000002A
:1006D000000000000000000000000000000000001A
:1006E000000000000000000000000000000000000A
:1006F00000000000000000000000000000000000FA
:1007000000000000000000000000000000000000E9
:1007100000000000000000000000000000000000D9
:1007200000000035001E001F0020002100220029CB
:100730000014001A000800150017002B0004001612
:1007400000070009000A00E1001D001B0006001957
:10075000000500E300E200E00002512800A8003597
:1007600000270026002500240023002A0013001281
:10077000000C0018001C00340033000F000E000DA8
:10078000000B00E50038003700360010001100E7CC
:1007900000E600E40003512C00000035001E001F9D
:1007A00000200021002200290014001A0009001373
:1007B000000A002B0004001500160017000700E1D6
:1007C000001D001B00060019000500E300E200E028
:1007D0000001002800A8003500270026002500247D
:1007E0000023002A0033001C0018000F000D003405
:1007F0000012000C00080011000B00E50038003763
:1008000000360010000E00E700E600E40001002CB6
:1008100000000001003A003B003C003D003E003576
:10082000001E001F0020002100220001001E021FE8
:100830000220022102220201002E002D002E022F92
:10084000023002010001000100010001000100442A
:100850000043004200410040003F004500270026C1
:10086000002500240023003102270226022502244D
:10087000022302010031003302330030002F000157
:100880000001000100010001000100010001000160
:100890000001000100010001004900460065000060
:1008A0000000000100E200E000E10000003900016A
:1008B000007A007B007C007D000000010001000147
:1008C0000001000100010001000100010001000120
:1008D0000001002A0001000100520001004B002A23
:1008E000004C004F00510050004E0001000000017C
:1008F00000000001000000010001000100010001F2
:100900000001002223252628292A2C2D2F303233BE
:100910003536383A3B3D3E4042434547494A4C4EC6
:100920005051535557595A5C5E6062646668696BF2
:100930006D6F71737577797B7D7F81838587898AF8
:100940008C8E90929496989A9C9E9FA1A3A5A7A8FE
:10095000AAACAEAFB1B3B4B6B8B9BBBCBEBFC1C22E
:10096000C3C5C6C7C9CACBCCCDCED0D1D2D2D3D4C1
:10097000D5D6D7D7D8D9D9DADADBDBDBDCDCDCDCDF
:10098000DCDDDDDDDDDCDCDCDCDCDBDBDBDADAD9AD
:10099000D9D8D7D7D6D5D4D3D2D2D1D0CECDCCCB2F
:1009A000CAC9C7C6C5C3C2C1BFBEBCBBB9B8B6B44D
:1009B000B3B1AFAEACAAA8A7A5A3A19F9E9C9A98DD
:1009C000969492908E8C8A89878583817F7D7B79AE
:1009D000777573716F6D6B6968666462605E5C5A8F
:1009E0005957555351504E4C4A4947454342403E52
:1009F0003D3B3A3836353332302F2D2C2A292826E4
:100A0000252322FFAA7F55400001010101010101B8
:100A100001010202020202020202020303030303B3
:100A20000303030404040404040405050505050682
:100A30000606060607070707070808080809090940
:100A4000090A0A0A0B0B0B0C0C0C0D0D0D0E0E0EE9
:100A50000F0F0F101011111112121313141415157A
:100A600016161717181819191A1A1B1B1C1D1D1EEC
:100A70001E1F202021222223242425262627282940
:100A8000292A2B2C2D2D2E2F30313232333435366E
:100A90003738393A3B3C3D3E3F404142434445466E
:100AA0004748494A4C4D4E4F50515354555658594A
:100AB0005A5B5D5E5F616264656668696B6C6D6FF1
:100AC0007072737577787A7B7D7E80828385878864
:100AD0008A8C8E8F91939596989A9C9EA0A2A3A59E
:100AE000A7A9ABADAFB1B3B5B7BABCBEC0C2C4C69F
:100AF000C9CBCDCFD1D4D6D8DBDDDFE2E4E7E9EB5B
:100B0000EEF0F3F5F8FAFDFF00DA0281FFD9F1DB30
:100B100020A4A62EAF00A0C000A1C800AED580A81A
:100B20001FD300408D14200000047F3F1F64321447
:100B3000643214783C1E1E140A054350534C4B007B
:100B40000A0A00556E646566004C6F776572005244
:100B50006169736500426173650A004C41594552F1
:100B6000000A0A004D6F640A00436C6D6B005177F8
:100B70007274000A0A00808182838485868788894E
:100B80008A8B8C8D8E8F9091929394A0A1A2A3A416
:100B9000A5A6A7A8A9AAABACADAEAFB0B1B2B3B48D
:100BA000C0C1C2C3C4C5C6C7C8C9CACBCCCDCECFCD
:100BB000D0D1D2D3D40000AE00000000000000006D
:100BC0000000000000000000000000000000000025
:100BD0000000000000000000000000007E0F00D4B4
:100BE000FFFFFFC7000000780000000000000000C9
:100BF0002A2B280000000000000000000000000078
:100C000000000029000000002C1E34202122243482
:100C10002627252E362D3738271E1F202122232454
:100C200025263333362E37381F0405060708090AF0
:100C30000B0C0D0E0F101112131415161718191A8C
:100C40001B1C1D2F3130232D350405060708090A0A
:100C50000B0C0D0E0F101112131415161718191A6C
:100C60001B1C1D2F3130354C11241FBECFEFDAE095
:100C7000DEBFCDBF04B603FE27C080912A06909147
:100C80002B06A0912C06B0912D068730904BA740E3
:100C9000B04BD1F410922A0610922B0610922C061B
:100CA00010922D0614BE84B7877F84BF0FB6F894C8
:100CB000A895809160008861809360001092600028
:100CC0000FBEE0E0F8E3099512E0A0E0B1E0E8E053
:100CD000FDE602C005900D92AE31B107D9F726E0CE
:100CE000AEE1B2E001C01D92AA32B207E1F70E9464
:100CF0007E270C9437360C940000982F82958F70C5
:100D000011F0982F84E0292F2695269511F08E5FFB
:100D1000922F969509F08F5F0895E92FEE0FE90F56
:100D2000EE0FE80F8E2F877041E001C0440F8A95C7
:100D3000EAF7E695E695E69583E0E89FF001112451
:100D4000EC53FA4F30E020E070E05191DF01119751
:100D5000CB01022E02C0969587950A94E2F7817026
:100D600081958527842385278C932F5F3F4F2330E0
:100D7000310559F70895E92FEE0FE90FEE0FE80F4F
:100D80009E2F9770E695E695E69583E0E89FF00143
:100D90001124EC53FA4F50E040E080E0219130E024
:100DA000092E02C0369527950A94E2F72170332761
:100DB000042E01C0220F0A94EAF7822B4F5F5F4F87
:100DC0004330510559F708958091F3059091F2054C
:100DD000981301C008958F5F8770FACFE3E2F2E0C5
:100DE0009191891303C0DF0111971C9292E0E932BF
:100DF000F907B1F708958091EB0581111092EB0589
:100E000008958091EA059091F105892B9091DC0578
:100E1000892B809321029091EB05992391F0892BE6
:100E20008093210220E083E292E0FC013081019670
:100E300031112F5F32E089329307B9F721110E94F7
:100E4000FB06E091C205F091C305309731F00280B6
:100E5000F381E02D81E292E009940895882339F02E
:100E60009091EA05892B8093EA050C940107089577
:100E7000882341F080959091EA0589238093EA05C3
:100E80000C94010708959091EE0592FF06C0282F5B
:100E900028712830F9F4877F846093FF06C0282FDB
:100EA00028712831F1F4877E84612091EF0520FFBD
:100EB00006C0382F38713830D9F4877F816021FF20
:100EC00006C0282F28712831D1F4877E816194FDD6
:100ED000877E0895282F24712430F9F68B7F88604F
:100EE000DCCF282F2471243101F78B7E8861DDCF80
:100EF000382F3171313019F78E7F8860E0CF282F7D
:100F00002171213121F78E7E8861E1CFCF93DF936C
:100F1000EC01803E910509F45EC048F581339105EE
:100F200009F4A1C088F48932910509F495C08A9723
:100F300009F4A0C0C130D10529F1CE010497813A4E
:100F4000910508F054C01EC089339105E9F182383B
:100F50009105D1F1C59709F478C0C83AD10508F0D8
:100F600090C0C53AD10530F3A497D0640BC0843E3D
:100F7000910509F44FC050F4823E9105D9F1833EAA
:100F80009105E9F1CE01DF91CF910895863E91055B
:100F900009F44BC0873E910509F44CC0811523E547
:100FA000920708F08BC0811532E5930708F0FDC069
:100FB000C11580E5D80708F077C0C11520E4D20735
:100FC00060F2DF70D06ADECF8091EE058370D1F2DF
:100FD000C0EED0E0D7CF8091EE0580FD11C1909199
:100FE000EF0590FFCFCFC3EED0E084FFCBCFD0E0B2
:100FF000C0E0C8CF8091EE0582FDF5CFC3CF8091D0
:10100000EE0582FD00C19091EF0590FDE1CF84FFD8
:10101000B9CFEDCF8091EF0581FFB4CF8091EE0580
:10102000C7EED0E084FDE3CFADCF8091EE0583FD28
:10103000F7CFA8CF8091EE0583FDE8C09091EF0532
:1010400091FFE5CFC4EED0E09DCF8091EE0585FF06
:1010500099CFC9E2D0E096CF8091EE0585FF92CF7F
:10106000C5E3D0E08FCF8091EE0586FF8BCFCAE23B
:10107000D0E088CF8091EE0586FF84CFC1E3D0E039
:1010800081CFCF3BD10508F468C0C83ED10528F414
:10109000C03ED10508F4ABCF75CFCE019A9581152E
:1010A0009F4108F0A4CF6ECFC11581E5D80708F4A1
:1010B0005FC0DC2FCC27C16FD06A64CF811529E5D2
:1010C0009207A0F5811538E5930708F086C0C11591
:1010D00085E5D807C8F4C11524E5D20708F078C023
:1010E0009E012370332781E090E002C0880F991F92
:1010F0002A95E2F7C695C69530E2C39FE001112418
:10110000C82BD92BDA683ECFCE0195558F3F91057C
:1011100011F008F06CCF8C2F0E944307C82FD0E04D
:10112000DC2FCC27CC27DF71D0622CCFC1158AE50C
:10113000D80708F457C0CE0190568115904208F0A8
:1011400056CF8D2F8F710E94430790E0982F8827EC
:1011500088279F718C2BEC01E7CFC85AD0E0CC0FC9
:10116000DD1FC151DE4F0990D881C02DD4640ACF54
:101170009E0174E0369527957A95E1F723708C2FC0
:1011800086958695837030E2839FC0011124922B4F
:10119000C37021E030E002C0220F331FCA95E2F78E
:1011A000822B932BEC01DC68EDCE9C01237033275E
:1011B00081E090E002C0880F991F2A95E2F7C6955A
:1011C000C69520E2C29FE0011124C82BD92BEBCF9A
:1011D000DC2FCC27C46FD06AD5CED82FCC27C06FD8
:1011E000D06AD0CE8C2F8F700E94430734E0D69502
:1011F000C7953A95E1F7CF709C2FEC01D069C2CE2C
:10120000C9E3D0E0BFCEC2EED0E0BCCEC6EED0E0A7
:10121000B9CE80E00895F894E82FE295EF70F0E001
:1012200041A18F7021E030E0B90102C0660F771F45
:101230008A95E2F7CB01962F9095942391A392A1E2
:10124000892B82A37894089508956F927F928F924C
:101250009F92AF92BF92CF92DF92EF92FF920F9345
:101260001F93CF93DF93B82EA62E8901E42FF0E0D1
:10127000E85FF54F611119C0E4918E2F2E2FD80130
:1012800011962C931197EC9312968C93DF91CF913A
:101290001F910F91FF90EF90DF90CF90BF90AF9094
:1012A0009F908F907F906F900895E62EF12C24915F
:1012B00086E0B89E60011124CFEFD0E0C601BE01E8
:1012C0000E9402358B2D90E0880F991F35E5369FDF
:1012D000A001379F500D1124841B950B982F990F57
:1012E000980FAE014E195F09249FD001259FB00DC4
:1012F0001124EB2FA99E50011124AB2CBB24AE016D
:101300004A195B09249F5001259FB00C11248B2D95
:101310003E01691A71086E9C40016F9C900C7E9C86
:10132000900C1124892C9924C819D9092C9FA0014B
:101330002D9F500D112463307105D1F09CEFC9161B
:1013400093E0D90670F461307105B1F06230710537
:10135000B9F0FFEFCF16D10408F091CF8B2FE52F16
:101360008ECF6430710579F066307105B9F387CF9F
:10137000EB2D822F2B2F83CFE22F2B2D8B2F7FCF87
:10138000852FE22FF7CF822F252F79CF8091E5058A
:10139000982F9E7F61F4817082608093E505809133
:1013A000E805893718F088E78093E80508958A34BE
:1013B000B0F381708864F1CFE2EEF5E011828281B2
:1013C000846082830895FA0181110994FB01FDCFA5
:1013D000FC01680F791F8FEF91E32191822728E0AC
:1013E00030E087FF09C0880F892721503109C9F7EC
:1013F000E617F70791F70895880FF7CF2091450278
:10140000309146022817390771F090934602809375
:101410004502E091C205F091C305309721F00680A6
:10142000F781E02D09940895209143023091440200
:101430002817390771F09093440280934302E0919A
:10144000C205F091C305309721F00084F185E02DAD
:1014500009940895882361F19CEF980F913A20F444
:101460000E94EE060C94010790E2980F983088F4E1
:10147000877021E030E0A90102C0440F551F8A9512
:10148000E2F7CA0180959091EA0589238093EA05E5
:10149000E9CF9BE5980F933020F490E080E00C9426
:1014A000FE09885A873120F490E080E00C94140AF9
:1014B000089590E080E00E94FE0990E080E00E94A4
:1014C000140A1092F1051092DC050C940107809328
:1014D000EC050C94590A8093ED050C94590A21E00F
:1014E00030E001C0220F8A95EAF78091ED05822B4A
:1014F0000C946B0A21E030E001C0220F8A95EAF7D4
:1015000020958091ED0582230C946B0A9091F00553
:10151000809589238093F005282F277039F4282F90
:10152000082E000C330B9217130621F49091EF054F
:1015300092FF07C08595859585950E947A0A10923D
:10154000F00508959C01FC0132968FEF90E04191E7
:10155000461751F08F3F19F4411101C0892F9F5F49
:101560009630A9F78F3F09F40895280F311D87FDA4
:101570003A95F90162830895CF93C82F882309F41F
:1015800045C08CEF8C0F813A88F4E3E2F2E0819160
:10159000C817B1F122E0E932F207C9F76C2F81E2F6
:1015A00092E00E94A20ACF910C94010780E28C0F76
:1015B000883068F4C77021E030E001C0220FCA957E
:1015C000EAF78091EA05822B8093EA05ECCF8BE560
:1015D0008C0F833038F42C2F2452330BC901CF9158
:1015E0000C94FE09C85AC73188F4EC2FF0E0EE0FD6
:1015F000FF1FE151FE4F80819181CF910C94140A1D
:101600008C2F0E94EE060E940107C8CFCF9108954B
:10161000CF93DF9300D000D0CDB7DEB78FB7F8946B
:1016200020917B0530917C0540917D0550917E0590
:1016300029833A834B835C838FBF69817A818B8155
:101640009C810F900F900F900F90DF91CF91089594
:101650000C94080B87E797E79093010880930008A4
:1016600088E19AE00FB6F894A895809360000FBEC9
:1016700090936000FFCF8091420208950895FC018D
:10168000CB0120913502309136022617370790F0B2
:10169000009729F42091E8002E772093E80040E09D
:1016A000009751F4411108C08091E80082FF31C0D9
:1016B00080E00895C901F3CF209193052223A9F179
:1016C0002530A9F12091E80023FD2DC02091E800EC
:1016D00022FDEACF2091E80020FFE2CF3091F30015
:1016E0002091F200009719F02830310558F041E0C0
:1016F0002830310509F040E02091E8002E77209352
:10170000E800CECF41914093F10001972F5F3F4F0A
:10171000E9CF80919305882341F0853041F0809195
:10172000E80083FFC1CF81E0089582E0089583E05F
:10173000089580912F0287FF13C08091E80082FFF7
:1017400006C08091E8008B778093E80004C0809108
:1017500093058111F2CF0895809193058823D9F3E1
:101760008091E80080FFF8CF8091E8008E77ECCF81
:101770002091E4003091E50095E6A9012091EC006C
:10178000822F817020FF06C08091E80080FF06C094
:1017900080E008952091E80022FD1AC08091930511
:1017A000882389F0853089F08091EB0085FD0FC09A
:1017B0002091E4003091E50042175307F9F291506F
:1017C000E1F684E0089582E0089583E0089581E0E1
:1017D0000895E8EDF0E080818E7F80831092E20032
:1017E0001092DA001092E100A0EEB0E08C918160DE
:1017F0008C9380818F77808319BCA7EDB0E08C91AA
:101800008E7F8C9380818F7E808310922E0208952C
:10181000EF92FF920F931F93CF937C018B010E9455
:10182000B80BC82F811117C08091E80085FD0BC04F
:101830008091E8008E778093E8000E94B80B88239F
:1018400099F3C82F08C0F70181917F018093F100BF
:101850000150110949F78C2FCF911F910F91FF90E3
:10186000EF9008958091ED05982F9670963019F4B9
:1018700088600C946B0A877FFCCF982F9093E900C7
:10188000242F762F50E0891731F07091EC002091D1
:10189000ED005091F00021FD06C09F5F973071F779
:1018A0008093E90008953091EB003E7F3093EB0088
:1018B0003091ED003D7F3093ED003091EB003160D1
:1018C0003093EB007093EC002093ED005093F00008
:1018D0002091EE0027FDE1CF0895CF92DF92EF92A5
:1018E000FF920F931F93CF93DF93C8EDD0E08881D1
:1018F0008F7E8883E7EDF0E080818160808384E0E3
:1019000082BF81E080932E0288818E7F888302EEE1
:1019100010E0F80110821092DA0081EEC82ED12C6E
:10192000F601108288818F77888388818068888318
:1019300088818F7D888319BC1092930510922D02A7
:101940001092640510922C0290EEE92EF12CF70112
:1019500080818B7F808388818160888342E060E022
:1019600080E00E943D0CF60180818E7F8083F8012B
:10197000808181608083808188608083F70180819D
:101980008E7F8083888180618883DF91CF911F91D2
:101990000F91FF90EF90DF90CF9008950F931F93DA
:1019A000CF93C82F0AE010E0893311F400E510E06E
:1019B0008C2F0E94BC0A8FE99FE00197F1F700C0CD
:1019C000000001501109B9F78C2FCF911F910F9191
:1019D0000C942A0A811106C089EA611101C08AEAC1
:1019E0000C94CE0C813029F48EE46111F9CF8BE494
:1019F000F7CF089580919405811110C08091D8008F
:101A000080618093D8008AE18A95F1F700C08091C7
:101A1000D90080FF0AC081E08093940581E0909115
:101A20009405913009F080E0089582E08093940558
:101A30000E94E90B10929305F1CF0E94FA0C8823C3
:101A400051F0E091C205F091C305309721F001906B
:101A5000F081E02D099480E00895CF93DF9300D0CA
:101A600000D0CDB7DEB70E94FA0C882341F00F906A
:101A70000F900F900F90DF91CF910C94080B0E9464
:101A8000080B69837A838B839C8380919E05909158
:101A90009F05A091A005B091A10529813A814B81B4
:101AA0005C81280F391F4A1F5B1FCA01B9010F90C3
:101AB0000F900F900F90DF91CF910895AF92BF924A
:101AC000CF92DF92EF92FF920F931F93CF93DF930A
:101AD000F82EE92ED62EC72E890180919805AA24CA
:101AE000A394B12C8A3018F48AE0A82EB12CC1E05E
:101AF000D0E0F8946D2D7C2D8F2D9E2DF801099549
:101B00007894811104C02196AC16BD065CF4DF9177
:101B1000CF911F910F91FF90EF90DF90CF90BF90EA
:101B2000AF900895CC9F9001CD9F300D300D1124C2
:101B300090E080E045E34A95F1F700000196281710
:101B40003907C1F7D6CF609110018091E50580FF7C
:101B500020C080910F0143E0849FC0011124805B6D
:101B60009D4F539A2BB1277F3BB138605FB7F894F4
:101B7000FC01649FE00DF11D1124BF016817790776
:101B8000D1F45FBF8FE594E00197F1F700C000004A
:101B90000895809111019091120123E0829FF0013C
:101BA0001124E05BFD4F8917A0F61182108212828A
:101BB0008F5F3396F8CFFC014191CF01E8E03BB94C
:101BC000000000C047FF2BB9440F000000C000C058
:101BD00000C02BB900C0EA9591F7D0CF0F931F93A7
:101BE000CF93DF93EC0110E000E090911301901788
:101BF000110609F06CF40E94A30D8C8190E001960F
:101C0000817099278C83DF91CF911F910F91089557
:101C100080911101A801480F511D9A01220F331F15
:101C2000240F351F205B3D4F4C816091E70580916B
:101C3000E60596959017110669F064F0442361F06B
:101C40004091E805493708F048E70E9425090F5FF1
:101C50001F4FCBCF4423A1F340E0F7CFEF92FF9289
:101C60001F93CF93DF93EC0110E0EE24EA94F12C64
:101C700060911301161770F00E94A30D9A818C8158
:101C800090FF28C08F5F8C83DF91CF911F91FF90D1
:101C9000EF90089580911101810F9927991F9C0160
:101CA000220F331F280F391F205B3D4F4091E8055D
:101CB000493708F048E770E0C7010E943035962F99
:101CC0008C816091E705199F800D11240E942509E0
:101CD0001F5FCECF8150D7CF9F92AF92BF92CF924E
:101CE000DF92EF92FF920F931F93CF93DF93EC015C
:101CF0008A81BB24BA9480FD02C0BB24B3948C813A
:101D0000A0901301811109C091E0B91202C08FEFB8
:101D10008A0D80934F0281E08C83F12CE12CEA1430
:101D2000F0F00E94A30D90914F02E1E0BE125CC062
:101D3000809113018150992319F08FEF890F91E061
:101D400080934F029C83DF91CF911F910F91FF9061
:101D5000EF90DF90CF90BF90AF909F9008958091CB
:101D600011018E0D9F2D911D8C01000F111F080F69
:101D7000191F005B1D4FF80111821082128234E09E
:101D8000C32ED12C912C80914F02890D873444F1C0
:101D900066E40E942235892F082E000C990B8E15BF
:101DA0009F05A9F48091E8058C9DA0018D9D500DA3
:101DB00011245595479555954795493708F048E7BB
:101DC00098016091E7058091E6050E9425099B0C2A
:101DD000F1E0CF1AD108B9F68FEFE81AF80A9FCFD1
:101DE00087FFDACF8A0DD8CF892F90E001966091D6
:101DF000130170E00E943035982FA2CFFF920F930D
:101E00001F93CF93DF93EC018C81811109C081E096
:101E10008C8310924E0292E0909303018093020112
:101E2000109111019091120183E0189FF00111248B
:101E3000E05BFD4F812F891768F100E093E0F92EF8
:101E400060911301061760F10E94A30D80910201B9
:101E500020914E02280F20934E0290910301980F7B
:101E600090930301191654F4022E000C330B409189
:101E700013014150550B2417350734F08195809399
:101E80000201813009F41C82DF91CF911F910F91E3
:101E9000FF9008951182108212828F5F3396CBCF0C
:101EA000E02FF0E070E0CF010E943035810F482F25
:101EB00050E020914E02022E000C330BE217F30784
:101EC000D4F020910301022E000C330B2E173F0794
:101ED00094F08F9D90011124205B3D4F4091E805C7
:101EE000493708F048E76091E7058091E6050E94D0
:101EF00025090F5FA5CFFA01EE0FFF1FE40FF51FB5
:101F0000E05BFD4F118210821282F3CFEF92FF92BD
:101F10000F931F93CF93DF93CDB7DEB72E970FB6F6
:101F2000F894DEBF0FBECDBF8D879E87AD85BE8581
:101F300014961C91212F30E0D9010E949A359B0103
:101F4000AC010E94B03569837A838B839C83E0E285
:101F5000F0E0E11BF109A5E5B0E09B01AC010E94B6
:101F6000B03569877A878B879C879F01DF010E9444
:101F700092359B01AC010E94BB356D837E838F83BC
:101F800098879B01AC0189819A81AB81BC81280F24
:101F9000391F4A1F5B1F69857A858B859C850E9446
:101FA0004435F22E822F90E0A9E2A21788F1B3E027
:101FB0002B9FC001112495958795182F109500E04F
:101FC00085E5E82EEF1880911301081770F10E9443
:101FD000A30DED85FE85948181E0992319F090325F
:101FE00019F48FEF8093010180910101890FAD8574
:101FF000BE8514968C932E960FB6F894DEBF0FBE56
:10200000CDBFDF91CF911F910F91FF90EF90089579
:1020100025E530E0281B390BC901880F991F820F75
:10202000931F97FFC8CF0196C6CF8E2D01FD8F2D30
:1020300040911101400F5527551F9A01220F331F60
:10204000240F351F205B3D4F412F193708F048E71B
:102050006091E7050E9425090F5FB5CFE5EEF5E039
:1020600080818E7F80830E94DC09E2EEF5E0828130
:10207000816082832FEF80E792E021508040904082
:10208000E1F700C000000C94A30D9091E50590FFCE
:1020900014C0909111012091120133E0939FF0013F
:1020A0001124E05BFD4F921710F00C94A30D818377
:1020B000608342839F5F3396F6CF08950F931F93FB
:1020C000CF93DF9300D00F92CDB7DEB78C01809114
:1020D0004D0281110AC09E012F5F3F4F48E76FEF0D
:1020E0000E9425098A8180934D02F8016481613044
:1020F00049F06230F1F080914D0240E0662331F00A
:1021000040E019C060914D0240E080E00E9445101F
:10211000F801848190E0019663E070E00E94303520
:1021200084830F900F900F90DF91CF911F910F91AB
:10213000089540914D0280E060E0E8CFCF93DF93B7
:1021400000D00F92CDB7DEB79091E50590FF12C099
:10215000493708F048E79E012F5F3F4F0E9425094D
:102160004B8169818A810F900F900F90DF91CF9101
:102170000C9445100F900F900F90DF91CF91089520
:10218000CF93DF93EC01EC81F0E0ED5FF64F4491EB
:10219000E5EEF5E0628181810E949E108C818F5F67
:1021A0008C83DF91CF910895CF93DF93EC01E5EE1F
:1021B000F5E0438162818C810E949E108C818F5F4B
:1021C0008C83DF91CF910895CF93DF93D82FC92FC0
:1021D00081E08093E9008FEF9091E800815095FDB8
:1021E00006C095ED9A95F1F700008111F5CF809129
:1021F000E80085FF16C050E040E068E070E08D2FF9
:102200009C2F0E94080C8091E8008E778093E80054
:1022100088E0ED2FFC2FAAE3B2E001900D928A95A1
:10222000E1F7DF91CF91089590919305943029F5CE
:102230008093370260933802709339029093E900DB
:102240008FEF9091E800815095FD06C095ED9A952D
:10225000F1F700008111F5CF8091E80085FF0DC0F6
:1022600050E040E063E070E087E392E00E94080CF9
:102270008091E8008E778093E8000895BC0183E0A8
:102280000C941411BC0184E00C941411CF93C091F0
:10229000EF05C2FB992790F9981781F080FBC2F9EE
:1022A000C093EF056091EE0584E090E00E94033654
:1022B0006C2F82E290E0CF910C940336CF91089579
:1022C0004F925F926F927F928F929F92AF92BF9246
:1022D000CF92DF92EF92FF920F931F93CF93DF93F2
:1022E00010E000E038E7632E712CE801CC0FDD1F11
:1022F00058011CC0F60185909490692DC7010E9479
:102300000336682DC70101960E94033622E0C20EF3
:10231000D11C32E0E30EF11C4E145F0459F72C96E9
:1023200086E0A80EB11CC615D70581F0C501880F3F
:10233000991F9C012D5D384F69017E0137E2E30E44
:10234000F11C2E0183E3480E511CD4CF3E0128E737
:10235000620E711C045C1F4F003F110531F6DF91C6
:10236000CF911F910F91FF90EF90DF90CF90BF9092
:10237000AF909F908F907F906F905F904F90089557
:10238000CF93C82F6FEF811161E283E290E00E944A
:1023900003366FEFC11160E184E290E00E940336E2
:1023A0006FEFC11169E185E290E0CF910C940336A3
:1023B000CF93DF93C7E0D2E060E0CE010E94033606
:1023C0002196C11584E0D807B9F7DF91CF91089520
:1023D00080E00E94C01160E086E290E00E94033637
:1023E0000E9460110E94D81181E00C94C011CF931B
:1023F00084E090E00E94EF35C82F82E290E00E94D6
:10240000EF35982F8C2FCF91089583E290E00E94B2
:10241000EF35813289F484E290E00E94EF3580311B
:1024200059F485E290E00E94EF3591E0893109F09E
:1024300090E0892F8170089580E0FCCF0F931F9367
:10244000CF93DF93C42FD0E0CC0FDD1F2CE0629F31
:10245000C00DD11D112438E7839FC00DD11D11245B
:10246000CE0187960E94EF35082F10E0102F00272D
:10247000CE0188960E94EF359801282BC901DF9183
:10248000CF911F910F910895462F672F843030F41C
:102490007A3020F4463010F40C941E1290E080E064
:1024A0000895DF92EF92FF920F931F93CF93DF93E4
:1024B0007C010091ED058091EC05082BC7E0D0E090
:1024C00010E0DC2EC8010C2E02C0959587950A9469
:1024D000E2F780FD0CC02197A0F7D12C8D2DDF9164
:1024E000CF911F910F91FF90EF90DF900895B7016A
:1024F0008C2F0E9444120E948607019761F3EECF51
:102500000F931F93CF93FC01828100811181882357
:1025100089F0662379F0C8010E945112C82F682FF4
:10252000C8010E948D06B8018C2FCF911F910F9189
:102530000C944412C8010E94BB06C82FF4CFCF935D
:10254000DF93D82FC92F0E9451126D2F7C2F0E942C
:102550004412DF91CF910C9486070E949F12282F7E
:10256000892F8F70392F32953F70903C80F43A302C
:10257000B0F4343020F4323090F480E008953630F6
:10258000E1F781E0283E88F0213FB9F70EC03C30EA
:1025900011F03F3091F7869586958695089581E0F4
:1025A000203F39F018F4283E40F70895243F29F7DA
:1025B000FCCF08951092EA05E3E2F2E086E0DF0145
:1025C0001D928A95E9F70C94590A1F93CF93DF93D4
:1025D000CDB7DEB7AA970FB6F894DEBF0FBECDBF5A
:1025E0008FE292E0FC0101962091F100208322E02D
:1025F00087339207B9F780913002893009F456C0C9
:10260000C8F4823009F4B2C0833009F481C081304B
:1026100071F18091E80083FF81C280912F02909137
:1026200030029A3008F07AC2E92FF0E0E75CF94C0A
:102630000C9485358A3009F488C08B3051F780912D
:102640002F02813231F78091330290913402892B2D
:1026500001F78091E800877F8093E8000E94990B42
:1026600080913102809300010E94DA12D2CF8091D2
:102670002F02813A71F68091E800877F8093E8000D
:102680008091330290913402892B61F468E08AE3EF
:1026900092E070E00E943F0B8091E8008B7780937E
:1026A000E800B7CF60E090E080E0F3CF80912F02A8
:1026B000813209F0AECF80913302909134028D7F48
:1026C000892B09F0A6CF8091E800877F8093E800EE
:1026D0008091E80082FF17C09091F3008091F20092
:1026E000029729F48091F1008B7F813021F4809151
:1026F000F100809342028091E8008B778093E8009C
:102700000E94990B86CF809193058111E1CF81CFF3
:1027100080912F02813A09F07CCF80913302909111
:102720003402892B09F075CF8091E800877F809370
:10273000E8008091E80080FFFCCF80910001809349
:10274000F1008091E8008E77D9CF80912F028132FD
:1027500009F05FCF8091E800877F8093E8000E94B6
:10276000990B8091320280932B0253CF80912F02DC
:10277000813A09F04ECF8091E800877F8093E8008E
:102780008091E80080FFFCCF80912B02D8CF803869
:1027900099F0823809F0C2C1809133028F7087307E
:1027A00008F0BCC18093E9008091EB0085FB88278D
:1027B00080F91092E90006C080912C029091640586
:1027C000911182609091E800977F9093E800809348
:1027D000F1001092F1008091E8008E779BC1882370
:1027E00009F489C1823009F099C1809131028111C7
:1027F0008CC1809133028F702FEF280F263008F0A4
:102800008DC18093E9002091EB0020FF7EC19330C1
:1028100031F48091EB0080628093EB0076C190915F
:10282000EB0090619093EB0021E030E001C0220FBB
:102830008A95EAF72093EA001092EA008091EB0073
:102840008860EACF81116AC1109131021F778091AF
:10285000E3008078812B8093E3008091E800877FFC
:102860008093E8000E94990B8091E80080FFFCCFE4
:102870008091E30080688093E30082E0111183E09F
:10288000809393054BC18058823008F047C1409136
:102890003102509132024C3D83E0580799F583E0B4
:1028A0008A838AE289834FB7F894DE01139620E089
:1028B0003EE051E2E32FF0E050935700849120FF77
:1028C00003C082958F703F5F8F708A30C8F0895C3B
:1028D00090E08D939D932F5F243161F74FBF8091DE
:1028E000E800877F8093E8006AE270E0CE010196FD
:1028F0000E943F0B8091E8008B778093E8000EC127
:10290000805DE6CF8091330290913402252F3327EA
:102910002330310509F44AC078F52130310509F436
:1029200079C08BE590E0E2E4F1E02230310509F076
:10293000F5C02091E800277F2093E8002091350220
:10294000309136028217930708F49C0140E021156C
:10295000310509F064C0411162C08091E80082FD38
:10296000C9CF80919305882329F2853019F280918F
:10297000E80083FFF2CFBECF2132310509F43BC01E
:102980002232310509F0CAC08330910508F0C6C073
:10299000FC01EE0FFF1FEC56FE4F0190F081E02D81
:1029A0008F569E4FDC018C9190E011C0CA0199278F
:1029B000413089F082309105B1F0892B09F0AEC029
:1029C000EFEDF1E0E4918E2F90E0EFEDF1E0009774
:1029D00009F4A4C0AECFE1ECF1E0E4918E2F90E0D9
:1029E000E1ECF1E0F4CFEFEAF1E0E4918E2F90E03A
:1029F000EFEAF1E0ECCF8330910508F08FC0880F4B
:102A0000991FFC01E656FE4F0190F081E02D89E010
:102A100090E08FCF82E190E0EDE9F1E08ACF809104
:102A20009305882309F466CF853009F463CF80913C
:102A3000E80083FD5FCF8091E80082FD8ECF80911A
:102A4000E80080FF84CF9091F3008091F20021157F
:102A5000310519F08830910550F041E0089709F0F0
:102A600040E08091E8008E778093E80070CF449139
:102A70004093F1003196215031090196E8CF80381A
:102A800009F04CC08091E800877F8093E800809136
:102A90002D028093F1009FCE811140C01091310230
:102AA0001230E0F58091E800877F8093E800109372
:102AB0002D020E94990B112311F084E005C0809132
:102AC000E30087FDFACF81E08093930542E061EC5B
:102AD00081E00E943D0C42E261EC84E00E943D0CEA
:102AE00042E261EC82E00E943D0C42E260EC83E055
:102AF0000E943D0C13C080913102813079F481E055
:102B0000933009F080E0809364051092E900809191
:102B1000E800877F8093E8000E94990B8091E8008D
:102B200083FF0AC08091E800877F8093E80080914E
:102B3000EB0080628093EB00AA960FB6F894DEBF9C
:102B40000FBECDBFDF91CF911F9108950F931F93BB
:102B5000CF93DF938B01D82FC92F0E94C609A801FC
:102B60006D2F7C2F88E090E0DF91CF911F910F9126
:102B70000C941536E5EEF5E083E0808311828FEF4B
:102B8000828388E783831482E2EEF5E082818360AA
:102B9000828363E070E08FEF98E70C94A615CF93E3
:102BA000DF9300D000D0CDB7DEB78091E905833048
:102BB00018F48F5F8093E9058091E5059091E60513
:102BC000A091E705B091E80589839A83AB83BC8324
:102BD000BC01CD010F900F900F900F90DF91CF911E
:102BE0000C94A615CF93DF9300D000D0CDB7DEB7FD
:102BF0008091E905882319F081508093E90580913F
:102C0000E5059091E605A091E705B091E805898377
:102C10009A83AB83BC83BC01CD010F900F900F90C2
:102C20000F90DF91CF910C94A615AF92BF92CF92E7
:102C3000DF92EF92FF920F931F93CF93DF9300D019
:102C400000D000D00F92CDB7DEB7082FF62E142F8C
:102C5000D22E9091E50590FF9DC0E92FE695AE2F0D
:102C6000B0E0A056BE4F8C918093E2059E7F9230DB
:102C700009F049C0493708F048E79E012F5F3F4FF0
:102C80006F2D802F0E9425094B8169818A810E94C6
:102C900045108091E605801308C08091E7058F11EB
:102CA00004C08091E805811729F08091E4058260D5
:102CB0008093E4050093E605F092E7051093E8059C
:102CC000DD2009F467C08091E5059091E605A091AB
:102CD000E705B091E8058C839D83AE83BF83BC017B
:102CE000CD0127960FB6F894DEBF0FBECDBFDF91A2
:102CF000CF911F910F91FF90EF90DF90CF90BF90F9
:102D0000AF900C94A615823019F41091E805C1CF4C
:102D1000863019F40091E605BCCF8930D9F38931AA
:102D200009F0B7CFE9518E2F8170C82EE695F0E0FB
:102D3000ED5FF54FA590B490E12CBB246091130199
:102D4000E61618F00E94A30DA4CF2E2D30E0EA9CC9
:102D5000C001EB9C900D112470E00E940235802F81
:102D6000C11016C0860F90911101A901490F511D84
:102D70009A01220F331F240F351F205B3D4F412F37
:102D8000193708F048E76F2D0E942509E394D6CF44
:102D9000861BE9CF27960FB6F894DEBF0FBECDBFD6
:102DA000DF91CF911F910F91FF90EF90DF90CF9027
:102DB000BF90AF900895E5EEF5E0818121E0438179
:102DC0006281865F0C941516E5EEF5E0818121E0C5
:102DD000438162818A500C941516E5EEF5E062811C
:102DE00021E1620F08F46FEF21E0438181810C94AF
:102DF0001516E5EEF5E0628121E1621B08F460E062
:102E000021E0438181810C941516E5EEF5E04381C4
:102E100021E1420F08F44FEF21E0628181810C949F
:102E20001516E5EEF5E0438121E1421B08F440E090
:102E300021E0628181810C94151669EE7EEF90E0AD
:102E400080E00E94213660E082E090E00E9403363C
:102E500060E083E090E00E9403361092EC0560E0B1
:102E600084E090E00E94033660E082E290E00E94FD
:102E7000033660E085E090E00E94033660E086E083
:102E800090E00E9403366FEF87E090E00E940336E7
:102E900040E050E0BA0188E090E00E94153660E022
:102EA0008DE090E00E94033640E050E0BA0188E1F6
:102EB00090E00E94153660E087E190E00E940336C2
:102EC00040E050E0BA018CE190E00E94153670E0DD
:102ED00060E080E290E00E94213640E050E0BA01DC
:102EE00088E190E00E94153680E00E94C0110E94A7
:102EF000E81140E050E0BA018FE090E00E94153602
:102F000040E050E0BA0183E190E00C94153690E087
:102F100080E00E94FD35893E9E4F11F40C9405120D
:102F200080E008955F926F927F928F929F92AF920E
:102F3000BF92CF92DF92EF92FF920F931F93CF93A6
:102F4000DF930F92CDB7DEB7562E5A0149016701C4
:102F5000682E880F7708C3010E945F32892B09F021
:102F600089C08AE0869DF001879DF00D1124E85DFF
:102F7000FE4F8581482F50E0882311F041E050E05A
:102F80008AE0869DF001879DF00D1124E85DFE4FDB
:102F90006681778161587A4FCE0101960E94E635AD
:102FA000D5014D915D916D917C912FB7F8948091F1
:102FB0007B0590917C05A0917D05B0917E052FBF8A
:102FC000841B950BA60BB70B84369105A105B105A3
:102FD00040F4B601C8010E94E8099981891709F4F3
:102FE00050C0E52C550CFF08C7010E945F32892BA9
:102FF00099F0F12C8F2D0F90DF91CF911F910F91B0
:10300000FF90EF90DF90CF90BF90AF909F908F9008
:103010007F906F905F9008958AE08E9DF0018F9D64
:10302000F00D1124E85DFE4F458150E0C416D50631
:1030300008F4A6018AE08E9DF0018F9DF00D112409
:10304000E85DFE4F6681778161587A4FC4010E9426
:10305000E635B601C8010E94E80999818913C9CFF4
:103060000E94080BF5016083718382839383FF24A0
:10307000F394C0CFF12CA601B801C4010E94E6353B
:10308000B9CFFF24F394F7CFCF92DF92EF92FF9264
:103090000F931F93CF93DF9300D000D00F92CDB743
:1030A000DEB76B0185E0E82EF12C00E815E09E010B
:1030B0002F5F3F4F47E755E061E080E00E949217A5
:1030C000882349F095E0FE013196A2E7B5E0019032
:1030D0000D929A95E1F795E0E2E7F5E0D6010190CF
:1030E0000D929A95E1F70F900F900F900F900F901F
:1030F000DF91CF911F910F91FF90EF90DF90CF90D4
:103100000895CF92DF92EF92FF920F931F93CF9388
:10311000DF930F92CDB7DEB7EE24E394F12C06E8EF
:1031200015E09E012F5F3F4F4EE655E063E082E0E1
:103130000E949217082F882321F1C0906D058C2DD5
:1031400090E09C0125563A4F79011981F90180815F
:10315000181BD12E80E00AC0DA94F70180818F5FBE
:10316000808360E08C2D0E94EA0C802F1D14A4F354
:10317000912F17FD90E0191B11110EC081110E94B3
:10318000280B802F0F90DF91CF911F910F91FF900F
:10319000EF90DF90CF9008951F5FF70180818150FD
:1031A000808361E08C2D0E94EA0C802FE5CFCF93C5
:1031B000DF93CDB7DEB728970FB6F894DEBF0FBE0A
:1031C000CDBF4091690550916A0560916B05709182
:1031D0006C052FB7F89480917B0590917C05A091A8
:1031E0007D05B0917E052FBF841B950BA60BB70BF9
:1031F00084369105A105B10570F10E942D0DDC0109
:10320000CB010296A11DB11D89839A83AB83BC8338
:10321000809153019091540181589A4F209152010D
:10322000422F50E0253010F044E050E0BE016F5FC7
:103230007F4F0E94E63584E090E00E945F32892B48
:1032400061F40E94080B6093690570936A0580938E
:103250006B0590936C0581E001C080E028960FB665
:10326000F894DEBF0FBECDBFDF91CF910895CF920E
:10327000DF92EF92FF92CF93DF93CDB7DEB728971F
:103280000FB6F894DEBF0FBECDBF85E0E5EEF5E0EA
:103290009E012F5F3F4FD90101900D928A95E1F772
:1032A0004091E2059091E3058091E4054E839F8370
:1032B0008887C0906505D0906605E0906705F0901E
:1032C00068059FB7F89440917B0550917C0560910B
:1032D0007D0570917E059FBF4C195D096E097F09C0
:1032E000E22F443651056105710510F4882311F170
:1032F00080915D0190915E0181589A4F20915C010F
:10330000422F50E0293010F048E050E06E2F732F2C
:103310000E94E63585E090E00E945F32892BD1F46F
:103320000E94080B6093650570936605809367059E
:10333000909368051092E40581E028960FB6F89402
:10334000DEBF0FBECDBFDF91CF91FF90EF90DF903A
:10335000CF90089580E0F1CF1F93CF93DF93982F04
:10336000162F81E09A3019F09D3031F480E0DF9122
:10337000CF911F910C943F1AC0912903D0912A0339
:1033800086E0FE01A7E4B2E001900D928A95E1F794
:10339000903EA8F186E0FE0111928A95E9F7C0916E
:1033A0002903D0912A03111136C046E050E0BE0136
:1033B00087E492E00E94D9359E012C543340892B3A
:1033C000A9F52A5F3F4F40912B03642F70E0C9019C
:1033D0000E940235481B463010F4240F311D211580
:1033E00072E0370710F030E020E0245B3C4F309370
:1033F0002A0320932903DF91CF911F910895F6E0CE
:103400009F9FB00111246D517E4F46E050E0CE01E8
:103410000E94C335C4CF9E012A5F3F4FFE012E1785
:103420003F0719F2808180958193F9CFC90145E06A
:10343000969587954A95E1F741E050E0BA0102C0C0
:10344000660F771F8A95E2F7CB0160914E05709168
:103450004F05862B972BB9016B5F7F4FE5E0769583
:103460006795EA95E1F702C0440F551F6A95E2F7A8
:10347000842B952B90934F0580934E05A2CFCF932D
:10348000E82F2091290330912A032C543340409196
:103490002B03642F70E0C9010E940235481B842F62
:1034A000EE2369F066E00E941635C82FC15010F473
:1034B000CF91089560E080E20E94AC19F7CFA90196
:1034C000480F511D4115524018F080E030E020E0D7
:1034D000280F311D245B3C4F30932A03209329038E
:1034E000E7CF1F93CF93DF93EC01162FFE0184915A
:1034F000811104C0DF91CF911F910895612F0E9427
:10350000AC192196F3CF0E94711A81E00C943F1AF6
:10351000CF92DF92EF92FF920F931F93CF93DF939F
:103520006C017B0164E670E088E70E94E62FEC0105
:103530008601EC0CFD1C97FD0EC0F801849164E639
:1035400070E00E945F30EC01892B29F40F5F1F4F60
:10355000E016F10691F70E94EC30CE01DF91CF9199
:103560001F910F91FF90EF90DF90CF900895CF9330
:10357000DF9300D000D0CDB7DEB780915705882308
:10358000F9F00E94080BDC01CB01805A9541AF4F46
:10359000BF4F8093500590935105A0935205B0936F
:1035A00053058091540581110BC062E070E080E406
:1035B00091E00E94881A892B19F481E080935405C8
:1035C0000F900F900F900F90DF91CF9108951F9261
:1035D0001FB61F9211248F939F93AF93BF93809137
:1035E0002303811113C080917B0590917C05A091EC
:1035F0007D05B0917E054196A11DB11D80937B058F
:1036000090937C05A0937D05B0937E05BF91AF910B
:103610009F918F911F901FBE1F9018952FB7F89400
:1036200080917B0590917C05A0917D05B0917E05F0
:103630002FBF08950E94FA0C81110C940E1B0E945A
:103640002D0DCB0108956091E505669570E04BE086
:1036500050E084E091E00E94CC35892B19F481E0A0
:103660008093E3050E941A1B9093A7058093A605FB
:103670008091E40584608093E4050895CF93DF93FF
:1036800000D000D0CDB7DEB79091E50590FF4CC0DB
:10369000882309F442C0853208F041C08F77880F33
:1036A0009091E5059170892B8093E5058091E40563
:1036B00081608093E405662381F08091E505909117
:1036C000E605A091E705B091E80589839A83AB836D
:1036D000BC83BC01CD010E94A6156091E5056695ED
:1036E00070E04BE050E084E091E00E94CC35892B03
:1036F000C1F00E94DC0981E08093A90520E040919F
:10370000E8056091E7058091E6050F900F900F9016
:103710000F90DF91CF910C94151681E0C0CF84E219
:10372000BECF0E94231BE7CF0F900F900F900F90FA
:10373000DF91CF9108958091E50586958F5F853261
:1037400008F081E061E00C943E1B9091E5059695B0
:103750008FEF890F913009F484E261E00C943E1BF5
:103760009091E50590FF07C09695981720F0961761
:1037700010F40C949B1B61E00C943E1B9C014FB712
:10378000F89480917B0590917C05A0917D05B09186
:103790007E054FBF821B930B08957F928F929F925D
:1037A000AF92BF92CF92DF92EF92FF920F931F934F
:1037B000CF93DF93CDB7DEB763970FB6F894DEBF34
:1037C0000FBECDBF1A821982FE01339688E0DF0159
:1037D0001D928A95E9F78DEDE82E81E0F82E8E0195
:1037E0000F5F1F4F92EEA92E91E0B92E4801CC2415
:1037F000C394D12CF70181917F018F3F09F447C019
:10380000F894E82FE295EF70F0E021A18F70A60107
:1038100002C0440F551F8A95E2F7CA01922F982BD8
:1038200091A392A18095892382A3789400C0E7EEAA
:10383000F1E030E020E0712C81918F3F09F47AC0F3
:10384000A82FA295AF70A05EB0E04C9150E08F70B1
:1038500002C0559547958A95E2F740FD6BC08C2DC7
:10386000022E01C0880F0A94EAF7782A2F5F3F4F93
:103870002630310509F7F701319780818F3F11F02C
:103880000E940B0950EA5A95F1F7D8017C920F5F1C
:103890001F4FAE14BF0409F0ADCF4AE050E0B401B1
:1038A00088EB95E00E94D9358C01892B41F08AE0A4
:1038B000F401A8EBB5E001900D928A95E1F7F09044
:1038C000B70501151105C1F181E0809397050E94AC
:1038D0000E1B909396058093950580919505909188
:1038E00096050E94BE1B059768F0AF2DB0E0A3556A
:1038F000BA4F85E0E8EBF5E001900D928A95E1F78B
:103900001092970581E090E0012BD1F063960FB6FD
:10391000F894DEBF0FBECDBFDF91CF911F910F9105
:10392000FF90EF90DF90CF90BF90AF909F908F90DF
:103930007F90089580E099CF809197058111CDCF38
:103940000E94FA0CD82EE091B7059E01255F3F4FEB
:103950007901882309F4E1C01C861B862E5F3F4F46
:1039600083E0D9011D928A95E9F70E2F10E00355E7
:103970001A4F809198058A3008F0A3C024E438E1FA
:1039800048E651E0B701C8010E945E0D882309F4A2
:10399000B3C021E838E145E751E0B701C8010E9412
:1039A0005E0D882309F4A8C027ED38E14DE751E00A
:1039B000B701C8010E945E0D882309F49DC027E36A
:1039C00039E148E851E0B701C8010E945E0D882343
:1039D00009F492C010929805E091AC05F0E0BF01A7
:1039E00063557A4FD7019E01205F3F4F10E0FB01E6
:1039F0009191BF018D91981731F0AF01415051095C
:103A0000FA0180831D2D2A173B0789F78091DE0577
:103A10009091DF050E94BE1B893E934008F44FC081
:103A2000E090DD05F12C882799278E199F099C01CC
:103A3000990F440B550B288B398B4A8B5B8BCA0132
:103A4000B9010E94323427EA39E747E45DE3688B25
:103A5000798B8A8B9B8B688979898A899B890E945B
:103A60009534B62EC72ED82E092FC701FF0CAA0BEE
:103A7000BB0B888B998BAA8BBB8BBC01CD010E94A1
:103A800032349B01AC01B88AC98ADA8A0B8B688907
:103A900079898A899B890E949533688B798B8A8B77
:103AA0009B8B688979898A899B890E9401346093FC
:103AB000DD050E940E1B9093DF058093DE05812FAC
:103AC00025CF8091990590919A050E94BE1B843F55
:103AD000914008F053CFE091AC05F0E0E355FA4F88
:103AE00085E0DF01282F1D922A95E9F7D7011D9265
:103AF0008A95E9F71D2D8ACF809198058F3F31F087
:103B00008F5F809398058A3008F466CF0E940E1B61
:103B100090939A0580939905DECFF0E0E355FA4F34
:103B2000F89485E0A0E8B5E001900D928A95E1F760
:103B300065E070E080E895E00E94E80980937F05E9
:103B40007894F894E0919D05F0E0E556FA4F808175
:103B50008B878093860561E070E0C7010E94E809C9
:103B6000809385057894F894C0908705D090880557
:103B7000E0908905F0908A058091A2059091A305B7
:103B8000A091A405B091A505C816D906EA06FB06C2
:103B9000F1F0C092A205D092A305E092A405F092A4
:103BA000A5050E94FA0C811112C00E94080B688BB7
:103BB000798B8A8B9B8BC61AD70AE80AF90AC092BE
:103BC0009E05D0929F05E092A005F092A105789401
:103BD000F89480919205882379F180FF0DC080913F
:103BE0008B0580FF2CC09091E50591609093E505D1
:103BF00060E086950E943E1B8091920581FF09C07E
:103C000020E040918E0560918D0580918C050E9489
:103C100015168091920582FF06C080919105882338
:103C200089F00E94231B8091920583FF03C081E0ED
:103C30008093A90510929205789480E067CE0E9447
:103C40002E10DACF0E94DC09EECFFF920F931F9364
:103C5000CF93DF93C62FD42F122F8823A9F0609320
:103C6000E0050E940E1B90932A0280932902C770E0
:103C700081E001C0880FCA95EAF7DF91CF911F91CB
:103C80000F91FF900C942E078091E005681334C0CB
:103C90008091290290912A020E94BE1B84369105D0
:103CA00058F500E20D0FCD17A9F0C770FF24F3946B
:103CB0008F2D01C0880FCA95EAF70E943807083097
:103CC00048F48D2F877001C0FF0C8A95EAF78F2D7D
:103CD0000E942E07812F0E94CE0C0830A0F4D770CE
:103CE00081E001C0880FDA95EAF7DF91CF911F914B
:103CF0000F91FF900C943807C77081E001C0880FC6
:103D0000CA95EAF7F2CFDF91CF911F910F91FF9003
:103D100008953F924F925F926F927F928F929F92FF
:103D2000AF92BF92CF92DF92EF92FF920F931F93C9
:103D3000CF93DF93CDB7DEB72A970FB6F894DEBFE7
:103D40000FBECDBF89879A87A985BA859C911196A8
:103D50008C91119713962D913C91232B21F089235F
:103D60008F3F09F079C52A960FB6F894DEBF0FBED3
:103D7000CDBFDF91CF911F910F91FF90EF90DF901A
:103D8000CF90BF90AF909F908F907F906F905F90FB
:103D90004F903F90089590E080E02FEFE216F104FD
:103DA00011F008F078C5C70176C58114E4E09E06DD
:103DB00009F40AC6C4010E94EF35811101C0EA94DA
:103DC000FFEF8F1A9F0AE110F0CF8091640190916C
:103DD0006501A0916601B091670189839A83AB83E5
:103DE000BC83442443943AE0332E74012FEFE21A4B
:103DF000F20AC4010E94EF3589831A82882309F4EC
:103E0000E3C59FEF980F933010F58A83498232E023
:103E1000830E911CC7010E94EF358B83882309F420
:103E2000D3C58E010F5F1F4FD8012C912223E9F2D9
:103E300011969C911197213009F045C012968C91F2
:103E4000913039F40E5F1F4F0E94CE0C08C047011D
:103E5000E8CF923039F40E5F1F4F0E94BC0A0F5F0B
:103E60001F4FE2CF933029F40E5F1F4F0E942A0AA2
:103E7000F6CF943019F00F5F1F4FF1CF0E5F1F4F39
:103E800020E030E0B8016F5F7F4FF801418180533F
:103E9000990B8A30910560F02115310501F38FE906
:103EA0009FE00197F1F700C0000021503109F4CFE5
:103EB000329EF001339EF00D11249C012E0F3F1F06
:103EC000842F8B01DFCFE22FF0E0E851F44F5490C4
:103ED000822F86958695869590E0FC01E852F44FF6
:103EE000E4912770F0E0022E02C0F595E7950A9460
:103EF000E2F73F01A1E06A227724FC01E853F44F86
:103F0000A490B12C022E02C0B594A7940A94E2F7B3
:103F1000B1E0AB22BB24FC01E854F44FC490D12C97
:103F200002C0D594C7942A95E2F7E1E0CE22DD24C1
:103F30006114710419F081EE0E94BC0AA114B1044D
:103F400019F086EE0E94BC0A852D0E94CE0CAB288B
:103F500019F086EE0E942A0A672819F081EE0E9465
:103F60002A0ACD2809F47BCF8CE26ECF81E00E9433
:103F70006F0A0E94320C28C581E00E947A0AF9CFAC
:103F800082E0F5CFB5EFEB16BCE5FB06E1F027E2EA
:103F900045EE66EEE6EFEE16ECE5FE0649F027E2AA
:103FA00045EE64EEF4EFEF16FCE5FF0609F013C4EE
:103FB0000E94251E09C527E245EE65EEF9CF26E2EF
:103FC00041EE60EEF5CF26E241EE62EEF1CF9701D1
:103FD0002A5F3C452930310508F40EC4A6E1EA16F3
:103FE000ACE5FA0609F0BFC19091EA05882309F40F
:103FF000B9C0892F8A7A91E009F490E09093E105A5
:1040000069E2811165E381E292E00E94A20A0E94C6
:104010000107DAC4F701E350FC458091EE058160A9
:10402000E331F105B8F4ED5BF94C0C948535C7012B
:104030008A5F9C45099708F0F1C3F701EB5FFC45E7
:10404000E830F10590F4EA5AF94C0C9485358091EA
:10405000EE0582608093EE05E1C38091EE058460F9
:10406000F9CF8091EE058860F5CF8091EF058160F2
:104070008093EF05D3C38091EF058260F9CF8091E3
:10408000EE058061E7CF8091EE058062E3CF8091FD
:10409000EE058064DFCF0E94DA128091EE05806821
:1040A000D9CF8091EE058C60D5CF8091EF058360EC
:1040B000DFCF8091EE058E7FCDCF8091EE058D7F95
:1040C000C9CF8091EE058B7FC5CF8091EE05877FAC
:1040D000C1CF8091EF058E7FCBCF8091EF058D7F93
:1040E000C7CF8091EE058F7EB5CF8091EE058F7D95
:1040F000B1CF8091EE058F7BADCF0E94DA12809117
:10410000EE058F77A7CF8091EE05837FA3CF8091B7
:10411000EF058C7FADCF8091EE0582FB992790F95A
:1041200021E0922790FB82F990FB83F993CF809155
:10413000EF05982F909591708E7F892B90FB81F9D8
:1041400097CF0E94DA129091EE05892F97FB87F99D
:10415000805880CF61E08EE090E00E9403365EC31D
:1041600060E0F9CF8091E105811104C089E20E94ED
:10417000EE064DCF85E3FBCFFDE5EF16FF0609F414
:1041800023C4E985FA858281C080D180882309F41F
:1041900023C1C6010E945112F82E682FC6010E9449
:1041A0008D06B6018F2D0E9444120E948607182F9B
:1041B000F92EA985BA851296DC9012971596CC90A7
:1041C0000C2D02950F708091F0058770A1F0AD2C39
:1041D000DD2091F0892F807F803421F080E2810FF3
:1041E000883048F082E00E94860A8091F00587704E
:1041F000AA24A3948111A12CBF2CB2942FE0B22247
:10420000B8E0BB1609F4D7C1BB1508F42AC1E3E036
:10421000EB1508F4E6C08F2D807FFF2DFF70FF2E79
:1042200021E02B1508F030C1803219F0F29480EFB4
:10423000F822112309F463C1113009F483C1DD2090
:1042400009F48BC1002309F482C1A985BA851596AA
:104250008C91159780FF2EC18F7015968C9377C126
:104260008091E50580FF26C08E7F8093E5058091D3
:10427000E5059091E605A091E705B091E8058D83ED
:104280009E83AF83B887BC01CD010E94A6150E9412
:10429000DC098091E40581608093E4059FEFA0E74D
:1042A000B2E09150A040B040E1F700C000000E9491
:1042B000A30D8AC381608093E50561E086950E9425
:1042C0003E1B82C345EA5BE16BE97BE10E94E309A7
:1042D0007BC34BE95BE165EA7BE1F8CF44EE56E155
:1042E0006BED76E1F3CF4BED56E164EE76E1EECF88
:1042F00049EF56E16DEE76E1E9CF4DEE56E169EF1B
:1043000076E1E4CF41E157E165E077E1DFCF45E0D9
:1043100057E161E177E1DACF42EF55E16FEC75E10A
:10432000D5CF4FEC55E162EF75E1D0CF61E081E090
:10433000C6CF65E082E00E94B01B46C368E086E01D
:10434000FACF6EE089E0F7CF64E18FE0F4CF67E168
:1043500085E1F1CF61E088E1B2CF62E289E1EBCFA4
:1043600061E083E2ACCFEAE5EE16EDE5FE0681F111
:1043700068F4E1142CE5F206F1F03EEDE3163CE5BD
:10438000F30609F0FECE0E941D171EC38BE5E8164A
:104390008DE5F806F9F09CE5E9169DE5F90609F0CA
:1043A000F0CE8091EF0582FB882780F991E0892784
:1043B0000E944611E6CE0E94DA12AFEFB4E3ECE0C1
:1043C000A150B040E040E1F700C000000E942A0B7D
:1043D00081E0EECF80E0ECCFC6010E94BB06F82E54
:1043E000E0CE34E0B31609F4CAC0AB2DA850BB0B25
:1043F000149710F40E941D0DAA20B9F08091F005C9
:1044000080FD13C0E985FA8512828595859585958D
:104410000E946F0A89859A850E94891E8091F00505
:104420008595859585950E947A0A60E089859A85AB
:104430002A960FB6F894DEBF0FBECDBFDF91CF91A5
:104440001F910F91FF90EF90DF90CF90BF90AF90B2
:104450009F908F907F906F905F904F903F900C94C3
:10446000801289E0B81609F418C186E08B0D8F70B0
:10447000823008F0BACF123F09F01FC18F2D8F7123
:10448000DD2009F45AC116C1882319F0F29490EF87
:10449000F922DD20C9F0FF2069F080E2810F883029
:1044A00010F011110BC08091EA058F298093EA0565
:1044B0000E940107812F0E94BC0A97CF8091F105CD
:1044C0008F298093F105F4CF812F0E942A0AFF20C3
:1044D00009F48BCFF09480E2810F883010F0111135
:1044E00008C08091EA058F218093EA050E940107A8
:1044F0007CCF8091F1058F218093F105F7CFDD20EE
:10450000A9F09091EB058F2D892B011103C00E941A
:104510002E076BCF0130D9F72091EF0522FD65CF33
:10452000981709F462CF8093EB055FCF011106C0A5
:104530000E94FB068F2D0E94380757CF013009F4E7
:1045400054CFF6CFDD2029F0063008F04ECF8F2D66
:10455000DECF053008F049CFEDCF002359F31933F2
:1045600009F009C1BFEFE7EEF3E0B150E040F040E1
:10457000E1F700C00000812F0E942A0A36CF8F2D5C
:1045800086958695837069F0813009F02ECF812F52
:104590009F2D9370D11002C090E080E00E94140A19
:1045A00024CF812F9F2D9370D11002C090E080E026
:1045B0000E94FE091ACF8F2D8370A9F5D11015CF57
:1045C000812F829586958770880F880F412F4F70B5
:1045D000082E01C0440F0A94EAF7212F207114FF1E
:1045E00007C02FE030E001C0220F8A95EAF720953E
:1045F0009F2D969596959370923081F0822F842B03
:10460000933031F08091EC05913029F0242B8223F6
:104610000E94670AEACE842B822BFACF242B80914A
:10462000EC058227F5CFDD2069F1F0FEDECE812F8B
:10463000829586958770880F880F412F4F70082EBE
:1046400001C0440F0A94EAF7212F207114FF07C01C
:104650002FE030E001C0220F8A95EAF720959F2DC8
:10466000969596959370923099F0822F842B933083
:1046700031F08091ED05913041F0242B82230E948E
:104680006B0AB3CEF1FEB1CED2CF842B822BF7CF03
:10469000242B8091ED058227F2CF0F2D0F70DD20A6
:1046A00029F0802F0E946F0A812F31CF812F0E9425
:1046B0003807802F0E947A0A98CE133F60F4103F8B
:1046C00011F1113FA9F1DD2009F450C00111F2CE22
:1046D0008F2D8F7132C0133F99F1143FA1F7DD2068
:1046E000D9F11F2D1F71812F0E946F0A8091EF0554
:1046F00082FD07C0A8E01A9FC00111248360809347
:10470000F005812F1AC0DD2079F0053008F06DCE5C
:104710002F2D2F7181E090E001C0880F2A95EAF7D4
:104720009091ED058927ABCF063008F05ECEF0CF33
:104730008F2D8F71DD2009F4BDCF0E946F0A55CEF9
:1047400080E0DD2009F49BCF9F2D9F7181E001C0A7
:10475000880F9A95EAF793CF81E00E94860A02308B
:1047600008F443CE82E00E94860A3FCE0111F7CEC4
:104770008F2D8F719FCF8FE39CE90197F1F7F9CED1
:10478000F0E1EF16FFE5FF0609F4F0CB21E1E216B8
:104790002FE5F20609F4F4CBF3EFEF16FCE5FF0684
:1047A00009F40DCC08F0EECB38EDE3163CE5F3064A
:1047B00009F401CC28E241E099EDE9169CE5F906FF
:1047C00009F4FBCB26E241EE61EEA7EDEA16ACE57B
:1047D000FA0609F4EDCB882309F41CC11092E00518
:1047E00026E1E2162CE5F20608F0F1CB32E0E31602
:1047F0003CE5F30608F4B7CD0E94F7119093EF055E
:104800008093EE0586E1E8168CE5F80608F00FCCFB
:1048100092E0E9169CE5F90608F0FCCB6091EE0504
:10482000F090EF0584E090E00E9403366F2D82E265
:1048300090E00E9403360E94DA12C6C030E1E3160F
:104840003FE5F30609F498CB91E1E9169FE5F906F7
:1048500009F0A2CF82E091CB61E089859A850E9420
:1048600080127C01A985BA8512968C91882309F45F
:1048700090C0C70190568115B0E29B0750F0905E42
:104880008115E0E19E0728F0915C81159F4108F0B9
:1048900082CAC70199279C0124503109243231056D
:1048A00020F08B970E9708F074C08091DE059091F0
:1048B000DF05009709F467C00E94BE1BC090DD05AC
:1048C0009C0150E040E060E67AEE80E090E00E94DB
:1048D0006635CA01B90125E030E040E050E00E94B1
:1048E00066352F3F310519F010F02FEF30E0D12C55
:1048F0002C193D09C901B0E0A0E08D839E83AF83F0
:10490000B887B901CD010E94303427EA39E747E47E
:104910005DE36D837E838F8398876D817E818F8138
:1049200098850E9495346D837E838F8398876D81EF
:104930007E818F8198850E9413334B015C01C601F3
:10494000DD0CAA0BBB0B8D839E83AF83B887BC01A4
:10495000CD010E9432349401A5016D837E838F8343
:1049600098876D817E818F8198850E9495336D83B4
:104970007E838F8398876D817E818F8198850E9449
:1049800001346093DD050E940E1B9093DF05809338
:10499000DE05A985BA8512968C91882309F44ECF3D
:1049A000970122513F452031310508F0E9CE8FEFC4
:1049B00093E00E94EF35BEEEEB0E47E0842E42E01E
:1049C000942E882309F4FFC98091F005877009F4BB
:1049D000CAC9A985BA8512968C91882309F4C3C9DE
:1049E00082E02A960FB6F894DEBF0FBECDBFDF91EE
:1049F000CF911F910F91FF90EF90DF90CF90BF90DC
:104A0000AF909F908F907F906F905F904F903F906E
:104A10000C94860AB6E1EB16BCE5FB0609F4E4CA81
:104A20008091EA058272B6EDEB16BCE5FB0608F054
:104A3000A3CBE2ECEE16ECE5FE0608F4A2CBF70100
:104A4000E35CFC45E331F10508F00ACCE25AF94C8D
:104A50000C9485351F93CF93DF9380912906807F37
:104A6000A9F480912606882389F08091F305C091EE
:104A7000F2057091240660912506A0912706B09159
:104A80002806D62FD72316E0C81304C0DF91CF9194
:104A90001F91089590E0109711F0DF3F19F40196EF
:104AA0008770F2CF189F9001199F300D1124F901E2
:104AB000EC50FA4F41816413F2CF40814713EFCF9E
:104AC00042814111ECCF438154814A1B5B0B443638
:104AD000510528F7809129068F70806180932906FF
:104AE000F901E750FA4F80818F708061808384E202
:104AF00096E00E94891EDF91CF911F910C94E406ED
:104B00008F929F92AF92BF92DF92EF92FF920F939C
:104B10001F93CF93DF93CDB7DEB72B970FB6F894E3
:104B2000DEBF0FBECDBF8C0185E0F801DE01179618
:104B300001900D928A95E1F7F801E280A380B4809C
:104B400084E2882E86E0982E909124068091250696
:104B500020912706309128062115310529F0482F8C
:104B600049234F3F09F028C1EE2009F433C1F80171
:104B7000808191810E94AD12F82E882309F42AC108
:104B800086E0F801A4E2B6E001900D928A95E1F783
:104B90000E942A2521C0D09029064D2D407F243621
:104BA000310508F0A8C0F80121814111C3C0FE2CD5
:104BB000281325C08081891322C0E11020C08D2DCB
:104BC0008F7080618093290684E296E00E94891E9E
:104BD00080912906F80185838F2D2B960FB6F894C6
:104BE000DEBF0FBECDBFDF91CF911F910F91FF9020
:104BF000EF90DF90BF90AF909F908F9008953F818E
:104C0000AB2829F0822F83238F3F09F090C080E0EA
:104C1000F82FF170DF2EE091F3054091F20556E098
:104C200080FD1CC0EE20C1F2809129068160809336
:104C30002906F12CD1CF8E2F90E05E9FF001112438
:104C4000EC50FA4F6181261306C06081361303C011
:104C50006281E612E7CF0196E82FE770E413EBCF0D
:104C60008F8198850E949F12292F22952F70903254
:104C700060F0225F2F70223078F49F7051F0F801BD
:104C80009581907F31F4D12C0AC09F7011F0882358
:104C9000D1F3805E8830B8F3C8010E94891EFD2CD4
:104CA0009BCFF801808191810E94AD12882309F485
:104CB00091C0EE2009F48EC080912906803270F0F8
:104CC00080912406909125069A8389831B82BD8258
:104CD000AC82DE82CE0101960E94891E86E0F80138
:104CE000A4E2B6E001900D928A95E1F70E942A2590
:104CF000FF24F39471CF411132C084E296E00E9408
:104D0000891E86E0F40111928A95E9F792CFF801A5
:104D1000808191810E94AD128111E0CF809129069E
:104D2000816080932906C8010E94891E55CF81E0C9
:104D30008E256ECF2813B5CFF80180818913B1CFAE
:104D4000E110AFCFD582C8010E94891E86E0F8012C
:104D5000A4E2B6E001900D928A95E1F73DCFF8010B
:104D6000218182139ECFF801808189139ACFE110AF
:104D700098CFD582C8010E94891E86E0F401119265
:104D80008A95E9F729CFF80121818213C0CFF80174
:104D900080818913BCCF8091290680FDD7CF982FC1
:104DA000907FA1F28583903F71F2982F907F905F62
:104DB0008F70892B8583C7CFF0902606A501421BF3
:104DC000530B9A01F110E7CE24363105B0F6FE2CD4
:104DD000E110D9CFC8010E94891E8ACF1F93CF93BB
:104DE000DF93CDB7DEB767970FB6F894DEBF0FBE7F
:104DF000CDBF342F4B8B252F5C8B962F6D8B7E8BED
:104E00008F8B4E895F8961111092F1051A8A3D8757
:104E10002E879F87598B488B86E0FE013D96DE01E9
:104E2000179601900D928A95E1F7CE0107960E94A0
:104E30008025882389F016E08091F3059091F20592
:104E4000891349C067960FB6F894DEBF0FBECDBF79
:104E5000DF91CF911F91089586E0FE013796DE0124
:104E6000119601900D928A95E1F79F818885209196
:104E7000F2054091F3056A857B85672BE1F2892372
:104E80008F3FC9F230E0C901019687709927481712
:104E9000190671F40E94DA121092F2051092F305CD
:104EA00086E0E4E2F6E0DF011D928A95E9F7C3CFE0
:104EB00096E0929FD001939FB00D1124AC50BA4F51
:104EC000FE01319601900D929A95E1F78093F205DB
:104ED0000E94E406B0CF819FC00111248C509A4FEC
:104EE0000E948025882309F4ADCF8091F30590E0DE
:104EF0000196877099278093F3059ECFCDB7DEB7D3
:104F0000A4970FB6F894DEBF0FBECDBF84B7877FDE
:104F100084BF0FB6F894A895809160008861809353
:104F20006000109260000FBE80E890E00FB6F89429
:104F300080936100909361000FBE85B7806885BF44
:104F400085B7806885BF89E099E090931F028093C0
:104F50001E020E94E90B0E946D0C8091E2008460A9
:104F60008093E200789480919305882399F0809152
:104F7000E9001091EC001795112717958F70182BE9
:104F80001092E9008091E80083FD0E94E5121F70F5
:104F90001093E90082E084BD93E095BD9AEF97BD40
:104FA00080936E0010929E0510929F051092A005AE
:104FB0001092A1050E940512811102C00E94E81101
:104FC0000E94FA0C91E089278093140180911401CA
:104FD000882309F46EC080E080930F0184E28093FF
:104FE00010010E94FA0C81110E945131809114012C
:104FF0008091140195E0811190E09093B70585E0D0
:10500000891B8093AC050DED11E072EEE72E71E087
:10501000F72ED8018D918D018F3F11F00E940B0961
:10502000E016F106B1F707EE11E06DEEE62E61E055
:10503000F62EF80181918F018F3F11F00E940B092C
:10504000E016F106B1F78AE0E8EBF5E0DF01682E43
:105050001D926A94E9F7EDEAF5E0DF011D928A9569
:10506000E9F70E948717811102C00E941D1782E094
:1050700090E00E94EF35809359050E94F7119093BC
:10508000EF058093EE050E94CD1BEFE3FCE931971D
:10509000F1F700C000000E94CD1B8091AD0580FF9C
:1050A0000AC06FEF7FEF90E080E00E9421360E94FF
:1050B0002A0B84E291CF83E090E00E94EF350E94BA
:1050C000670A0E94FA0C811102C00E9454310E94AA
:1050D000FA0C882309F4F2C093E080E290934C0527
:1050E00080932B030E94E02F6DE070E08BE19BE04A
:1050F0000E94881A892B09F043C080914C0563E017
:1051000070E081FDDEC088E19BE00E94881A892B57
:10511000B9F56DE070E088E09BE00E94881A892B69
:1051200079F50E94080B69A37AA38BA39CA3DC01E9
:10513000CB01805A9541AF4FBF4F8093500590935C
:105140005105A0935205B0935305ECE4F3E080E0E1
:1051500092E0DF019C011D9221503040E1F7F09375
:105160002A03E09329038FEF9FEF90934F058093DD
:105170004E0581E0809357058093540510924D05AC
:1051800080912203811138C00E948717811104C0C9
:105190000E941D170E94BA1588E090E00E94F73522
:1051A0006093E5057093E6058093E7059093E80525
:1051B0008091E40583608093E4056E7F71F40E9422
:1051C000BA1588E090E00E94F7356093E50570938A
:1051D000E6058093E7059093E8050E94C6090E94C2
:1051E000DC098091E50580FF04C060E086950E949F
:1051F0003E1B81E08093220380911401811106C03F
:1052000084EF8093200185EF80931F01409120015E
:10521000A42FA295AF70B0E091963C9191974F70FA
:1052200081E090E0BC01042E01C0660F0A94EAF709
:10523000262F2095232391962C93919792962C912B
:105240009297262B92962C93929730911F01E32FE1
:10525000E295EF70F0E021A13F70032E01C0880FAE
:105260000A94EAF7982F9095922391A392A1892B03
:1052700082A390962C9180A190E002C0959587958D
:105280003A95E2F78170880F30E002C03595279596
:105290004A95E2F72170822B8093280390911401A4
:1052A00081E0982790939D05891B80936D0585E18A
:1052B00091E09093C3058093C2054DC290E080E8D1
:1052C0000DCF85E19BE021CF80919305843021F1C2
:1052D0001092230348E150E060E40FB6F894A895DB
:1052E000409360000FBE6093600083B7817F84604D
:1052F00083BF83B7816083BF7894889583B78E7F9F
:1053000083BF0FB6F894A895809160008861809360
:105310006000109260000FBE80916405882361F0E8
:105320000E94CD1BEDEAF5E081918111E7C487EB86
:1053300095E08E179F07C1F780919305853009F49A
:10534000C3CF0E94DA120E941D0D0CC2C394FF0C41
:1053500096E0C9121DC20F5F1F4F0A30110509F0F8
:105360000DC28FEF89838A831B820E940E1B81608E
:10537000782F9D838C8349815A816B81892F0E946C
:10538000EE2627C2853109F447C068F4893061F1FF
:105390008F30B1F18630E9F000ED17E0F4E2CF2E66
:1053A000F9E0DF2E30C2833209F441C004EF11E08E
:1053B000AEEECA2EADE0DA2E843209F424C208E241
:1053C00010E046E8C42E4FE0D42E883109F41BC209
:1053D000E3CFF0E0ED5CF44FE4910E2F10E034EDFC
:1053E000C32E30E1D32E0FC2E695F0E0E05DF44F1E
:1053F000E4910E2F10E02EE2C22E2EE0D22E03C238
:10540000E695F0E0E35DF44FE4910E2F10E09CE6AA
:10541000C92E9EE0D92EF7C1F0E0E65DF44FE4918D
:105420000E2F10E08EEFC82E8EE0D82EECC1E8E2F1
:10543000FBE005911491BEE5CB2EB0E1DB2EE3C17C
:105440000E940E1B90935605809355058CE493E0C3
:1054500090932A03809329030E94FA0C60E088232A
:1054600009F455C083E79BE00E94711A8091ED0515
:105470000E947D06882341F0813021F160E084E6BE
:105480009BE00E94711A05C060E08EE69BE00E94DE
:10549000831A60E081E69BE00E94711A60E08BE570
:1054A0009BE00E94831A8091ED050E947D06823068
:1054B00031F160F0833039F160E083E49BE00E94D9
:1054C000831A09C060E089E69BE0E1CF60E085E5F2
:1054D0009BE00E94711A60E080E49BE00E94711AD8
:1054E0000E941D0D81FB662760F98AE39BE00E9404
:1054F000831A80915705882309F452C249C260E09B
:105500008FE49BE0E6CF60E089E49BE0E2CF86E7B2
:105510009BE00E94711AEDCF80914D0561E070E033
:1055200081113EC2082F10E02B01082E02C0440C4E
:10553000551C0A94E2F7A90144215521452B09F491
:105540004AC020914C05922F917020FD46C09801D1
:1055500036952795369527958295880F80763FE179
:10556000380F8093230120932601309324019093D8
:10557000270124E630E047E050E061E271E088E78F
:105580000E948E30892B09F00BC2A80175E0440FF0
:10559000551F7A95E1F780914C0580FD26C0445B4C
:1055A0005C4F04E610E020E230E060E488E70E940F
:1055B000BB30892B09F0F4C10E94B71A4094509473
:1055C00080914E0590914F058421952190934F0530
:1055D00080934E05E5C18F5FA5CF880F880F880F98
:1055E00037E0380F20E093E0BCCFECE2F3E080E25C
:1055F000DF011D928A95E9F709ED11E065EDC62EF0
:1056000061E0D62E77E099249394D801ED918D0135
:10561000D6018D916D01840F952F911D9C01245B06
:105620003C4F1901F0E0E45DFC4F30E020E0772EC4
:10563000721A892D022E01C0880F0A94EAF75101CF
:1056400060E0D5019D915D019823A72DA61BA77051
:105650008A2E0A2E000CBB0B692E01C0660C8A94A0
:10566000EAF7B195A195B109A770BB2701C096953E
:10567000AA95EAF79629A0819A2B90836F5F6830EC
:1056800001F72F5F3F4F31962830310581F62DED20
:1056900031E02017310709F0B8CF04E610E020E22E
:1056A00030E04CE253E081CF00E210E0AE014F5F0A
:1056B0005F4F7A018091E80085FD0AC08091E80083
:1056C0008B778093E8000E94B80B882399F3BCC1C4
:1056D0008091F100D7018D937D010150110951F79F
:1056E000B3C11A8289E08B8312C08A81823009F4A7
:1056F0001BC3833009F4BAC1813009F0D5C10E94BF
:10570000080B0E948B356B837C838D839E838091F5
:105710009305843001F58091E9001091EC00179514
:10572000112717958F70182B82E08093E9008091E4
:10573000E80080FF0DC050E040E060E270E0CE0184
:1057400001960E94080C8091E8008E778093E80013
:105750001F701093E9008091930500E112E18530FC
:1057600009F4EACD0E94CD1BE82E81110E94080B9E
:10577000ADEAB5E0EAE5F5E010E000E0B02EDD903E
:1057800081918D1509F4E7CD8D25C12CFF24F3946B
:10579000982F9F2109F4DACD0E94FA0C882399F002
:1057A000C982BA82DF2081E009F480E08B830E9405
:1057B0000E1B8160782F9D838C8349815A816B8178
:1057C000892F0E94EE26F801E65AFA4F80818F2534
:1057D00080838091E305882309F465C08091E20508
:1057E000E091E505E695E81BE093A805823009F015
:1057F000C9CDF0E0EA5CF44FE4910E2F10E050ECDC
:10580000C52E50E1D52E8091A905882361F0109214
:10581000A9050E941A1B9093A7058093A6051092D4
:10582000AB051092AA050E941A1B9C018091A60547
:105830009091A705A901481B590B4F3F5F4798F569
:10584000409126034423B1F0109226034091240393
:1058500050912503241B350B2F3F3F4758F4405DE3
:105860005A4850932503409324032091E40528606F
:105870002093E405A090AA05B090AB05800F911F7E
:105880009093A7058093A60586EA95E0F601099511
:105890008091AA059091AB05892B29F4AB2819F0CA
:1058A00081E08093260340912001E42FE295EF7080
:1058B000E05EF0E0208130911F01E32FE295EF7070
:1058C000E05EF0E0808190E03F7002C095958795A2
:1058D0003A95E2F7880F991F8270992730E04F7050
:1058E00002C0359527954A95E2F721703327822B20
:1058F000E0912803EE0FEE0FE82BE09328031091C0
:105900009D05EF70F0E0EB53FE4F808190912703EF
:10591000890F80932703F12C82306CF0E12FF0E0A7
:10592000E556FA4F80818F5F808360E0812F0E946F
:10593000EA0CFF24F394809127038F3F6CF4E12F4E
:10594000F0E0E556FA4F80818150808361E0812F3D
:105950000E94EA0CFF24F39480912703082E000C88
:10596000990B62E070E00E94303580932703F110BC
:105970000E94280B80915705882309F440C080912C
:105980005505909156050E94BE1BC29708F058CD50
:1059900020914E0530914F052115310509F0BCCD00
:1059A00080915405882359F10E94080B69A37AA3BA
:1059B0008BA39CA38091500590915105A091520515
:1059C000B091530529A13AA14BA15CA1281B390B29
:1059D0004A0B5B0BDA01C9018F3F9F4FAF4FBF47A7
:1059E00070F480915705882351F062E070E086EBF7
:1059F0009BE00E94881A892B11F410925405E11043
:105A000001C0F1100E94B71A0E941D0D9091580517
:105A1000891721F00E941D0D8093580580919305F0
:105A2000843009F098CE83E08093E9008091E8000B
:105A300082FF91CE8091E80090E085FF06C00E9431
:105A4000B80B882309F430CE91E08091E8008B7781
:105A50008093E800992309F47ECEE981E150E33197
:105A600018F5F0E0EF58F94C0C9485358AE0EDEA32
:105A7000F5E0DE01139601900D928A95E1F747CE8D
:105A80008A81823089F42B813C814D815E8129A3FA
:105A90003AA34BA35CA3CA01B9010E948B3586E2ED
:105AA00090E00E94033633CE8FEF898330CE4C8155
:105AB0006B818A810E941E129827892798279E83CE
:105AC0008D8325CEED80FE80FE24EF24FE248A8186
:105AD0000B813CE0039F8001112448E7849F000D67
